{
  "_format": "hh-sol-artifact-1",
  "contractName": "NFTMarketplace",
  "sourceName": "contracts/NFTMarketplace.sol",
  "abi": [
    {
      "anonymous": false,
      "inputs": [
        {
          "indexed": true,
          "internalType": "uint256",
          "name": "id",
          "type": "uint256"
        },
        {
          "indexed": true,
          "internalType": "address",
          "name": "nftContract",
          "type": "address"
        },
        {
          "indexed": true,
          "internalType": "uint256",
          "name": "tokenId",
          "type": "uint256"
        },
        {
          "indexed": false,
          "internalType": "address",
          "name": "seller",
          "type": "address"
        },
        {
          "indexed": false,
          "internalType": "address",
          "name": "buyer",
          "type": "address"
        },
        {
          "indexed": false,
          "internalType": "uint256",
          "name": "price",
          "type": "uint256"
        },
        {
          "indexed": false,
          "internalType": "enum NFTMarketplace.State",
          "name": "state",
          "type": "uint8"
        }
      ],
      "name": "MarketItemCreated",
      "type": "event"
    },
    {
      "anonymous": false,
      "inputs": [
        {
          "indexed": true,
          "internalType": "uint256",
          "name": "id",
          "type": "uint256"
        },
        {
          "indexed": true,
          "internalType": "address",
          "name": "nftContract",
          "type": "address"
        },
        {
          "indexed": true,
          "internalType": "uint256",
          "name": "tokenId",
          "type": "uint256"
        },
        {
          "indexed": false,
          "internalType": "address",
          "name": "seller",
          "type": "address"
        },
        {
          "indexed": false,
          "internalType": "address",
          "name": "buyer",
          "type": "address"
        },
        {
          "indexed": false,
          "internalType": "uint256",
          "name": "price",
          "type": "uint256"
        },
        {
          "indexed": false,
          "internalType": "enum NFTMarketplace.State",
          "name": "state",
          "type": "uint8"
        }
      ],
      "name": "MarketItemSold",
      "type": "event"
    },
    {
      "anonymous": false,
      "inputs": [
        {
          "indexed": true,
          "internalType": "address",
          "name": "previousOwner",
          "type": "address"
        },
        {
          "indexed": true,
          "internalType": "address",
          "name": "newOwner",
          "type": "address"
        }
      ],
      "name": "OwnershipTransferred",
      "type": "event"
    },
    {
      "inputs": [
        {
          "internalType": "address",
          "name": "nftContract",
          "type": "address"
        },
        {
          "internalType": "uint256",
          "name": "tokenId",
          "type": "uint256"
        },
        {
          "internalType": "uint256",
          "name": "price",
          "type": "uint256"
        }
      ],
      "name": "createMarketItem",
      "outputs": [],
      "stateMutability": "payable",
      "type": "function"
    },
    {
      "inputs": [
        {
          "internalType": "address",
          "name": "nftContract",
          "type": "address"
        },
        {
          "internalType": "uint256",
          "name": "id",
          "type": "uint256"
        }
      ],
      "name": "createMarketSale",
      "outputs": [],
      "stateMutability": "payable",
      "type": "function"
    },
    {
      "inputs": [
        {
          "internalType": "uint256",
          "name": "itemId",
          "type": "uint256"
        }
      ],
      "name": "deleteMarketItem",
      "outputs": [],
      "stateMutability": "nonpayable",
      "type": "function"
    },
    {
      "inputs": [],
      "name": "fetchActiveItems",
      "outputs": [
        {
          "components": [
            {
              "internalType": "uint256",
              "name": "id",
              "type": "uint256"
            },
            {
              "internalType": "address",
              "name": "nftContract",
              "type": "address"
            },
            {
              "internalType": "uint256",
              "name": "tokenId",
              "type": "uint256"
            },
            {
              "internalType": "address payable",
              "name": "seller",
              "type": "address"
            },
            {
              "internalType": "address payable",
              "name": "buyer",
              "type": "address"
            },
            {
              "internalType": "uint256",
              "name": "price",
              "type": "uint256"
            },
            {
              "internalType": "enum NFTMarketplace.State",
              "name": "state",
              "type": "uint8"
            }
          ],
          "internalType": "struct NFTMarketplace.MarketItem[]",
          "name": "",
          "type": "tuple[]"
        }
      ],
      "stateMutability": "view",
      "type": "function"
    },
    {
      "inputs": [],
      "name": "fetchMyCreatedItems",
      "outputs": [
        {
          "components": [
            {
              "internalType": "uint256",
              "name": "id",
              "type": "uint256"
            },
            {
              "internalType": "address",
              "name": "nftContract",
              "type": "address"
            },
            {
              "internalType": "uint256",
              "name": "tokenId",
              "type": "uint256"
            },
            {
              "internalType": "address payable",
              "name": "seller",
              "type": "address"
            },
            {
              "internalType": "address payable",
              "name": "buyer",
              "type": "address"
            },
            {
              "internalType": "uint256",
              "name": "price",
              "type": "uint256"
            },
            {
              "internalType": "enum NFTMarketplace.State",
              "name": "state",
              "type": "uint8"
            }
          ],
          "internalType": "struct NFTMarketplace.MarketItem[]",
          "name": "",
          "type": "tuple[]"
        }
      ],
      "stateMutability": "view",
      "type": "function"
    },
    {
      "inputs": [],
      "name": "fetchMyPurchasedItems",
      "outputs": [
        {
          "components": [
            {
              "internalType": "uint256",
              "name": "id",
              "type": "uint256"
            },
            {
              "internalType": "address",
              "name": "nftContract",
              "type": "address"
            },
            {
              "internalType": "uint256",
              "name": "tokenId",
              "type": "uint256"
            },
            {
              "internalType": "address payable",
              "name": "seller",
              "type": "address"
            },
            {
              "internalType": "address payable",
              "name": "buyer",
              "type": "address"
            },
            {
              "internalType": "uint256",
              "name": "price",
              "type": "uint256"
            },
            {
              "internalType": "enum NFTMarketplace.State",
              "name": "state",
              "type": "uint8"
            }
          ],
          "internalType": "struct NFTMarketplace.MarketItem[]",
          "name": "",
          "type": "tuple[]"
        }
      ],
      "stateMutability": "view",
      "type": "function"
    },
    {
      "inputs": [],
      "name": "owner",
      "outputs": [
        {
          "internalType": "address",
          "name": "",
          "type": "address"
        }
      ],
      "stateMutability": "view",
      "type": "function"
    },
    {
      "inputs": [],
      "name": "renounceOwnership",
      "outputs": [],
      "stateMutability": "nonpayable",
      "type": "function"
    },
    {
      "inputs": [
        {
          "internalType": "address",
          "name": "newOwner",
          "type": "address"
        }
      ],
      "name": "transferMarketOwnership",
      "outputs": [],
      "stateMutability": "nonpayable",
      "type": "function"
    },
    {
      "inputs": [
        {
          "internalType": "address",
          "name": "newOwner",
          "type": "address"
        }
      ],
      "name": "transferOwnership",
      "outputs": [],
      "stateMutability": "nonpayable",
      "type": "function"
    }
  ],
  "bytecode": "0x6080604052600a60045560045460646200001a919062000160565b6005553480156200002a57600080fd5b50600160008190555062000053620000476200005960201b60201c565b6200006160201b60201c565b6200019b565b600033905090565b6000600160009054906101000a900473ffffffffffffffffffffffffffffffffffffffff16905081600160006101000a81548173ffffffffffffffffffffffffffffffffffffffff021916908373ffffffffffffffffffffffffffffffffffffffff1602179055508173ffffffffffffffffffffffffffffffffffffffff168173ffffffffffffffffffffffffffffffffffffffff167f8be0079c531659141344cd1fd0a4f28419497f9722a3daafe3b4186f6b6457e060405160405180910390a35050565b6000819050919050565b7f4e487b7100000000000000000000000000000000000000000000000000000000600052601160045260246000fd5b60006200016d8262000127565b91506200017a8362000127565b92508282101562000190576200018f62000131565b5b828203905092915050565b61263280620001ab6000396000f3fe6080604052600436106100915760003560e01c8063a9c0714511610059578063a9c0714514610148578063ab76ce1614610171578063c23b139e1461019c578063ef8da9da146101b8578063f2fde38b146101e357610091565b80631204923814610096578063332b386b146100bf57806358eb2df5146100ea578063715018a6146101065780638da5cb5b1461011d575b600080fd5b3480156100a257600080fd5b506100bd60048036038101906100b89190611aec565b61020c565b005b3480156100cb57600080fd5b506100d4610304565b6040516100e19190611d16565b60405180910390f35b61010460048036038101906100ff9190611d64565b610315565b005b34801561011257600080fd5b5061011b6106cd565b005b34801561012957600080fd5b50610132610755565b60405161013f9190611dc6565b60405180910390f35b34801561015457600080fd5b5061016f600480360381019061016a9190611de1565b61077f565b005b34801561017d57600080fd5b50610186610bb5565b6040516101939190611d16565b60405180910390f35b6101b660048036038101906101b19190611e0e565b610bc6565b005b3480156101c457600080fd5b506101cd610ff4565b6040516101da9190611d16565b60405180910390f35b3480156101ef57600080fd5b5061020a60048036038101906102059190611aec565b611005565b005b6102146110fd565b73ffffffffffffffffffffffffffffffffffffffff16610232610755565b73ffffffffffffffffffffffffffffffffffffffff1614610288576040517f08c379a000000000000000000000000000000000000000000000000000000000815260040161027f90611eab565b60405180910390fd5b600073ffffffffffffffffffffffffffffffffffffffff168173ffffffffffffffffffffffffffffffffffffffff1614156102f8576040517f08c379a00000000000000000000000000000000000000000000000000000000081526004016102ef90611f3d565b60405180910390fd5b61030181611005565b50565b60606103106000611105565b905090565b6002600054141561035b576040517f08c379a000000000000000000000000000000000000000000000000000000000815260040161035290611fa9565b60405180910390fd5b6002600081905550600081116103a6576040517f08c379a000000000000000000000000000000000000000000000000000000000815260040161039d90612015565b60405180910390fd5b6103b06002611682565b60006103bc6002611698565b90506040518060e001604052808281526020018573ffffffffffffffffffffffffffffffffffffffff1681526020018481526020013373ffffffffffffffffffffffffffffffffffffffff168152602001600073ffffffffffffffffffffffffffffffffffffffff1681526020018381526020016000600281111561044457610443611b8e565b5b815250600660008381526020019081526020016000206000820151816000015560208201518160010160006101000a81548173ffffffffffffffffffffffffffffffffffffffff021916908373ffffffffffffffffffffffffffffffffffffffff1602179055506040820151816002015560608201518160030160006101000a81548173ffffffffffffffffffffffffffffffffffffffff021916908373ffffffffffffffffffffffffffffffffffffffff16021790555060808201518160040160006101000a81548173ffffffffffffffffffffffffffffffffffffffff021916908373ffffffffffffffffffffffffffffffffffffffff16021790555060a0820151816005015560c08201518160060160006101000a81548160ff0219169083600281111561057857610577611b8e565b5b02179055509050503073ffffffffffffffffffffffffffffffffffffffff168473ffffffffffffffffffffffffffffffffffffffff1663081812fc856040518263ffffffff1660e01b81526004016105d09190612044565b602060405180830381865afa1580156105ed573d6000803e3d6000fd5b505050506040513d601f19601f820116820180604052508101906106119190612074565b73ffffffffffffffffffffffffffffffffffffffff1614610667576040517f08c379a000000000000000000000000000000000000000000000000000000000815260040161065e906120ed565b60405180910390fd5b828473ffffffffffffffffffffffffffffffffffffffff16827fb0a8dcfc08f1150d20def3c46440be585f61cce1bdbb0fdf16bc597f471c6e703360008760006040516106b7949392919061211c565b60405180910390a4506001600081905550505050565b6106d56110fd565b73ffffffffffffffffffffffffffffffffffffffff166106f3610755565b73ffffffffffffffffffffffffffffffffffffffff1614610749576040517f08c379a000000000000000000000000000000000000000000000000000000000815260040161074090611eab565b60405180910390fd5b61075360006116a6565b565b6000600160009054906101000a900473ffffffffffffffffffffffffffffffffffffffff16905090565b600260005414156107c5576040517f08c379a00000000000000000000000000000000000000000000000000000000081526004016107bc90611fa9565b60405180910390fd5b60026000819055506107d76002611698565b811115610819576040517f08c379a0000000000000000000000000000000000000000000000000000000008152600401610810906121ad565b60405180910390fd5b6000600281111561082d5761082c611b8e565b5b6006600083815260200190815260200160002060060160009054906101000a900460ff16600281111561086357610862611b8e565b5b146108a3576040517f08c379a000000000000000000000000000000000000000000000000000000000815260040161089a90612219565b60405180910390fd5b60006006600083815260200190815260200160002090503373ffffffffffffffffffffffffffffffffffffffff168160010160009054906101000a900473ffffffffffffffffffffffffffffffffffffffff1673ffffffffffffffffffffffffffffffffffffffff16636352211e83600201546040518263ffffffff1660e01b81526004016109329190612044565b602060405180830381865afa15801561094f573d6000803e3d6000fd5b505050506040513d601f19601f820116820180604052508101906109739190612074565b73ffffffffffffffffffffffffffffffffffffffff16146109c9576040517f08c379a00000000000000000000000000000000000000000000000000000000081526004016109c090612285565b60405180910390fd5b3073ffffffffffffffffffffffffffffffffffffffff168160010160009054906101000a900473ffffffffffffffffffffffffffffffffffffffff1673ffffffffffffffffffffffffffffffffffffffff1663081812fc83600201546040518263ffffffff1660e01b8152600401610a419190612044565b602060405180830381865afa158015610a5e573d6000803e3d6000fd5b505050506040513d601f19601f82011682018060405250810190610a829190612074565b73ffffffffffffffffffffffffffffffffffffffff1614610ad8576040517f08c379a0000000000000000000000000000000000000000000000000000000008152600401610acf906120ed565b60405180910390fd5b60028160060160006101000a81548160ff02191690836002811115610b0057610aff611b8e565b5b021790555080600201548160010160009054906101000a900473ffffffffffffffffffffffffffffffffffffffff1673ffffffffffffffffffffffffffffffffffffffff16837f064a9702da2c4a0a9af4cabda06e4715203ed7b0b3bb67eca6d3168e1c519bff8460030160009054906101000a900473ffffffffffffffffffffffffffffffffffffffff166000806002604051610ba1949392919061233f565b60405180910390a450600160008190555050565b6060610bc16001611105565b905090565b60026000541415610c0c576040517f08c379a0000000000000000000000000000000000000000000000000000000008152600401610c0390611fa9565b60405180910390fd5b600260008190555060006006600083815260200190815260200160002090506000816002015490506000826005015490506000600454606434610c4f91906123b3565b610c59919061243c565b90506000600554606434610c6d91906123b3565b610c77919061243c565b9050823414610cbb576040517f08c379a0000000000000000000000000000000000000000000000000000000008152600401610cb2906124b9565b60405180910390fd5b3073ffffffffffffffffffffffffffffffffffffffff168773ffffffffffffffffffffffffffffffffffffffff1663081812fc866040518263ffffffff1660e01b8152600401610d0b9190612044565b602060405180830381865afa158015610d28573d6000803e3d6000fd5b505050506040513d601f19601f82011682018060405250810190610d4c9190612074565b73ffffffffffffffffffffffffffffffffffffffff1614610da2576040517f08c379a0000000000000000000000000000000000000000000000000000000008152600401610d99906120ed565b60405180910390fd5b338560040160006101000a81548173ffffffffffffffffffffffffffffffffffffffff021916908373ffffffffffffffffffffffffffffffffffffffff16021790555060018560060160006101000a81548160ff02191690836002811115610e0d57610e0c611b8e565b5b0217905550610e1c6003611682565b8673ffffffffffffffffffffffffffffffffffffffff166323b872dd8660030160009054906101000a900473ffffffffffffffffffffffffffffffffffffffff1633876040518463ffffffff1660e01b8152600401610e7d939291906124d9565b600060405180830381600087803b158015610e9757600080fd5b505af1158015610eab573d6000803e3d6000fd5b50505050610eb7610755565b73ffffffffffffffffffffffffffffffffffffffff166108fc839081150290604051600060405180830381858888f19350505050158015610efc573d6000803e3d6000fd5b508460030160009054906101000a900473ffffffffffffffffffffffffffffffffffffffff1673ffffffffffffffffffffffffffffffffffffffff166108fc829081150290604051600060405180830381858888f19350505050158015610f67573d6000803e3d6000fd5b50838773ffffffffffffffffffffffffffffffffffffffff16877f064a9702da2c4a0a9af4cabda06e4715203ed7b0b3bb67eca6d3168e1c519bff8860030160009054906101000a900473ffffffffffffffffffffffffffffffffffffffff1633886001604051610fdb9493929190612510565b60405180910390a4505050505060016000819055505050565b60606110006002611105565b905090565b61100d6110fd565b73ffffffffffffffffffffffffffffffffffffffff1661102b610755565b73ffffffffffffffffffffffffffffffffffffffff1614611081576040517f08c379a000000000000000000000000000000000000000000000000000000000815260040161107890611eab565b60405180910390fd5b600073ffffffffffffffffffffffffffffffffffffffff168173ffffffffffffffffffffffffffffffffffffffff1614156110f1576040517f08c379a00000000000000000000000000000000000000000000000000000000081526004016110e890611f3d565b60405180910390fd5b6110fa816116a6565b50565b600033905090565b606060006111136002611698565b9050600080600190505b8281116112cd576112a6600660008381526020019081526020016000206040518060e0016040529081600082015481526020016001820160009054906101000a900473ffffffffffffffffffffffffffffffffffffffff1673ffffffffffffffffffffffffffffffffffffffff1673ffffffffffffffffffffffffffffffffffffffff168152602001600282015481526020016003820160009054906101000a900473ffffffffffffffffffffffffffffffffffffffff1673ffffffffffffffffffffffffffffffffffffffff1673ffffffffffffffffffffffffffffffffffffffff1681526020016004820160009054906101000a900473ffffffffffffffffffffffffffffffffffffffff1673ffffffffffffffffffffffffffffffffffffffff1673ffffffffffffffffffffffffffffffffffffffff168152602001600582015481526020016006820160009054906101000a900460ff16600281111561128a57611289611b8e565b5b600281111561129c5761129b611b8e565b5b815250508661176c565b156112ba5781806112b690612555565b9250505b80806112c590612555565b91505061111d565b506000808267ffffffffffffffff8111156112eb576112ea61259e565b5b60405190808252806020026020018201604052801561132457816020015b6113116119f8565b8152602001906001900390816113095790505b5090506000600190505b848111611675576114b7600660008381526020019081526020016000206040518060e0016040529081600082015481526020016001820160009054906101000a900473ffffffffffffffffffffffffffffffffffffffff1673ffffffffffffffffffffffffffffffffffffffff1673ffffffffffffffffffffffffffffffffffffffff168152602001600282015481526020016003820160009054906101000a900473ffffffffffffffffffffffffffffffffffffffff1673ffffffffffffffffffffffffffffffffffffffff1673ffffffffffffffffffffffffffffffffffffffff1681526020016004820160009054906101000a900473ffffffffffffffffffffffffffffffffffffffff1673ffffffffffffffffffffffffffffffffffffffff1673ffffffffffffffffffffffffffffffffffffffff168152602001600582015481526020016006820160009054906101000a900460ff16600281111561149b5761149a611b8e565b5b60028111156114ad576114ac611b8e565b5b815250508861176c565b1561166257600660008281526020019081526020016000206040518060e0016040529081600082015481526020016001820160009054906101000a900473ffffffffffffffffffffffffffffffffffffffff1673ffffffffffffffffffffffffffffffffffffffff1673ffffffffffffffffffffffffffffffffffffffff168152602001600282015481526020016003820160009054906101000a900473ffffffffffffffffffffffffffffffffffffffff1673ffffffffffffffffffffffffffffffffffffffff1673ffffffffffffffffffffffffffffffffffffffff1681526020016004820160009054906101000a900473ffffffffffffffffffffffffffffffffffffffff1673ffffffffffffffffffffffffffffffffffffffff1673ffffffffffffffffffffffffffffffffffffffff168152602001600582015481526020016006820160009054906101000a900460ff16600281111561161f5761161e611b8e565b5b600281111561163157611630611b8e565b5b81525050828481518110611648576116476125cd565b5b6020026020010181905250828061165e90612555565b9350505b808061166d90612555565b91505061132e565b5080945050505050919050565b6001816000016000828254019250508190555050565b600081600001549050919050565b6000600160009054906101000a900473ffffffffffffffffffffffffffffffffffffffff16905081600160006101000a81548173ffffffffffffffffffffffffffffffffffffffff021916908373ffffffffffffffffffffffffffffffffffffffff1602179055508173ffffffffffffffffffffffffffffffffffffffff168173ffffffffffffffffffffffffffffffffffffffff167f8be0079c531659141344cd1fd0a4f28419497f9722a3daafe3b4186f6b6457e060405160405180910390a35050565b600060028081111561178157611780611b8e565b5b82600281111561179457611793611b8e565b5b1415611816573373ffffffffffffffffffffffffffffffffffffffff16836060015173ffffffffffffffffffffffffffffffffffffffff1614801561180157506002808111156117e7576117e6611b8e565b5b8360c0015160028111156117fe576117fd611b8e565b5b14155b61180c57600061180f565b60015b90506119f2565b6001600281111561182a57611829611b8e565b5b82600281111561183d5761183c611b8e565b5b141561188b573373ffffffffffffffffffffffffffffffffffffffff16836080015173ffffffffffffffffffffffffffffffffffffffff1614611881576000611884565b60015b90506119f2565b6000600281111561189f5761189e611b8e565b5b8260028111156118b2576118b1611b8e565b5b14156119ed57600073ffffffffffffffffffffffffffffffffffffffff16836080015173ffffffffffffffffffffffffffffffffffffffff1614801561192057506000600281111561190757611906611b8e565b5b8360c00151600281111561191e5761191d611b8e565b5b145b80156119d857503073ffffffffffffffffffffffffffffffffffffffff16836020015173ffffffffffffffffffffffffffffffffffffffff1663081812fc85604001516040518263ffffffff1660e01b815260040161197f9190612044565b602060405180830381865afa15801561199c573d6000803e3d6000fd5b505050506040513d601f19601f820116820180604052508101906119c09190612074565b73ffffffffffffffffffffffffffffffffffffffff16145b6119e35760006119e6565b60015b90506119f2565b600090505b92915050565b6040518060e0016040528060008152602001600073ffffffffffffffffffffffffffffffffffffffff16815260200160008152602001600073ffffffffffffffffffffffffffffffffffffffff168152602001600073ffffffffffffffffffffffffffffffffffffffff1681526020016000815260200160006002811115611a8357611a82611b8e565b5b81525090565b600080fd5b600073ffffffffffffffffffffffffffffffffffffffff82169050919050565b6000611ab982611a8e565b9050919050565b611ac981611aae565b8114611ad457600080fd5b50565b600081359050611ae681611ac0565b92915050565b600060208284031215611b0257611b01611a89565b5b6000611b1084828501611ad7565b91505092915050565b600081519050919050565b600082825260208201905092915050565b6000819050602082019050919050565b6000819050919050565b611b5881611b45565b82525050565b611b6781611aae565b82525050565b6000611b7882611a8e565b9050919050565b611b8881611b6d565b82525050565b7f4e487b7100000000000000000000000000000000000000000000000000000000600052602160045260246000fd5b60038110611bce57611bcd611b8e565b5b50565b6000819050611bdf82611bbd565b919050565b6000611bef82611bd1565b9050919050565b611bff81611be4565b82525050565b60e082016000820151611c1b6000850182611b4f565b506020820151611c2e6020850182611b5e565b506040820151611c416040850182611b4f565b506060820151611c546060850182611b7f565b506080820151611c676080850182611b7f565b5060a0820151611c7a60a0850182611b4f565b5060c0820151611c8d60c0850182611bf6565b50505050565b6000611c9f8383611c05565b60e08301905092915050565b6000602082019050919050565b6000611cc382611b19565b611ccd8185611b24565b9350611cd883611b35565b8060005b83811015611d09578151611cf08882611c93565b9750611cfb83611cab565b925050600181019050611cdc565b5085935050505092915050565b60006020820190508181036000830152611d308184611cb8565b905092915050565b611d4181611b45565b8114611d4c57600080fd5b50565b600081359050611d5e81611d38565b92915050565b600080600060608486031215611d7d57611d7c611a89565b5b6000611d8b86828701611ad7565b9350506020611d9c86828701611d4f565b9250506040611dad86828701611d4f565b9150509250925092565b611dc081611aae565b82525050565b6000602082019050611ddb6000830184611db7565b92915050565b600060208284031215611df757611df6611a89565b5b6000611e0584828501611d4f565b91505092915050565b60008060408385031215611e2557611e24611a89565b5b6000611e3385828601611ad7565b9250506020611e4485828601611d4f565b9150509250929050565b600082825260208201905092915050565b7f4f776e61626c653a2063616c6c6572206973206e6f7420746865206f776e6572600082015250565b6000611e95602083611e4e565b9150611ea082611e5f565b602082019050919050565b60006020820190508181036000830152611ec481611e88565b9050919050565b7f4f776e61626c653a206e6577206f776e657220697320746865207a65726f206160008201527f6464726573730000000000000000000000000000000000000000000000000000602082015250565b6000611f27602683611e4e565b9150611f3282611ecb565b604082019050919050565b60006020820190508181036000830152611f5681611f1a565b9050919050565b7f5265656e7472616e637947756172643a207265656e7472616e742063616c6c00600082015250565b6000611f93601f83611e4e565b9150611f9e82611f5d565b602082019050919050565b60006020820190508181036000830152611fc281611f86565b9050919050565b7f5072696365206d757374206265206174206c6561737420312077656900000000600082015250565b6000611fff601c83611e4e565b915061200a82611fc9565b602082019050919050565b6000602082019050818103600083015261202e81611ff2565b9050919050565b61203e81611b45565b82525050565b60006020820190506120596000830184612035565b92915050565b60008151905061206e81611ac0565b92915050565b60006020828403121561208a57612089611a89565b5b60006120988482850161205f565b91505092915050565b7f4e4654206d75737420626520617070726f76656420746f206d61726b65740000600082015250565b60006120d7601e83611e4e565b91506120e2826120a1565b602082019050919050565b60006020820190508181036000830152612106816120ca565b9050919050565b61211681611be4565b82525050565b60006080820190506121316000830187611db7565b61213e6020830186611db7565b61214b6040830185612035565b612158606083018461210d565b95945050505050565b7f6964206d757374203c3d206974656d20636f756e740000000000000000000000600082015250565b6000612197601583611e4e565b91506121a282612161565b602082019050919050565b600060208201905081810360008301526121c68161218a565b9050919050565b7f6974656d206d757374206265206f6e206d61726b657400000000000000000000600082015250565b6000612203601683611e4e565b915061220e826121cd565b602082019050919050565b60006020820190508181036000830152612232816121f6565b9050919050565b7f6d75737420626520746865206f776e6572000000000000000000000000000000600082015250565b600061226f601183611e4e565b915061227a82612239565b602082019050919050565b6000602082019050818103600083015261229e81612262565b9050919050565b6000819050919050565b60006122ca6122c56122c084611a8e565b6122a5565b611a8e565b9050919050565b60006122dc826122af565b9050919050565b60006122ee826122d1565b9050919050565b6122fe816122e3565b82525050565b6000819050919050565b600061232961232461231f84612304565b6122a5565b611b45565b9050919050565b6123398161230e565b82525050565b600060808201905061235460008301876122f5565b6123616020830186611db7565b61236e6040830185612330565b61237b606083018461210d565b95945050505050565b7f4e487b7100000000000000000000000000000000000000000000000000000000600052601160045260246000fd5b60006123be82611b45565b91506123c983611b45565b9250817fffffffffffffffffffffffffffffffffffffffffffffffffffffffffffffffff048311821515161561240257612401612384565b5b828202905092915050565b7f4e487b7100000000000000000000000000000000000000000000000000000000600052601260045260246000fd5b600061244782611b45565b915061245283611b45565b9250826124625761246161240d565b5b828204905092915050565b7f506c65617365207375626d6974207468652061736b696e672070726963650000600082015250565b60006124a3601e83611e4e565b91506124ae8261246d565b602082019050919050565b600060208201905081810360008301526124d281612496565b9050919050565b60006060820190506124ee60008301866122f5565b6124fb6020830185611db7565b6125086040830184612035565b949350505050565b600060808201905061252560008301876122f5565b6125326020830186611db7565b61253f6040830185612035565b61254c606083018461210d565b95945050505050565b600061256082611b45565b91507fffffffffffffffffffffffffffffffffffffffffffffffffffffffffffffffff82141561259357612592612384565b5b600182019050919050565b7f4e487b7100000000000000000000000000000000000000000000000000000000600052604160045260246000fd5b7f4e487b7100000000000000000000000000000000000000000000000000000000600052603260045260246000fdfea26469706673582212205981c9337ce1b6bc53d0e14f278c41d58b39c264d4e3369f55204bea84bfa97b64736f6c634300080c0033",
  "linkReferences": {},
  "deployedLinkReferences": {}
}