{
  "_format": "hh-sol-artifact-1",
  "contractName": "NFToken",
  "sourceName": "contracts/NFToken.sol",
  "abi": [
    {
      "inputs": [
        {
          "internalType": "string",
          "name": "_name",
          "type": "string"
        },
        {
          "internalType": "string",
          "name": "_symbol",
          "type": "string"
        }
      ],
      "stateMutability": "nonpayable",
      "type": "constructor"
    },
    {
      "anonymous": false,
      "inputs": [
        {
          "indexed": true,
          "internalType": "address",
          "name": "owner",
          "type": "address"
        },
        {
          "indexed": true,
          "internalType": "address",
          "name": "approved",
          "type": "address"
        },
        {
          "indexed": true,
          "internalType": "uint256",
          "name": "tokenId",
          "type": "uint256"
        }
      ],
      "name": "Approval",
      "type": "event"
    },
    {
      "anonymous": false,
      "inputs": [
        {
          "indexed": true,
          "internalType": "address",
          "name": "owner",
          "type": "address"
        },
        {
          "indexed": true,
          "internalType": "address",
          "name": "operator",
          "type": "address"
        },
        {
          "indexed": false,
          "internalType": "bool",
          "name": "approved",
          "type": "bool"
        }
      ],
      "name": "ApprovalForAll",
      "type": "event"
    },
    {
      "anonymous": false,
      "inputs": [
        {
          "indexed": true,
          "internalType": "address",
          "name": "from",
          "type": "address"
        },
        {
          "indexed": true,
          "internalType": "address",
          "name": "to",
          "type": "address"
        },
        {
          "indexed": true,
          "internalType": "uint256",
          "name": "tokenId",
          "type": "uint256"
        }
      ],
      "name": "Transfer",
      "type": "event"
    },
    {
      "inputs": [
        {
          "internalType": "address",
          "name": "to",
          "type": "address"
        },
        {
          "internalType": "uint256",
          "name": "tokenId",
          "type": "uint256"
        }
      ],
      "name": "approve",
      "outputs": [],
      "stateMutability": "nonpayable",
      "type": "function"
    },
    {
      "inputs": [
        {
          "internalType": "address",
          "name": "owner",
          "type": "address"
        }
      ],
      "name": "balanceOf",
      "outputs": [
        {
          "internalType": "uint256",
          "name": "",
          "type": "uint256"
        }
      ],
      "stateMutability": "view",
      "type": "function"
    },
    {
      "inputs": [
        {
          "internalType": "uint256",
          "name": "tokenId",
          "type": "uint256"
        }
      ],
      "name": "getApproved",
      "outputs": [
        {
          "internalType": "address",
          "name": "",
          "type": "address"
        }
      ],
      "stateMutability": "view",
      "type": "function"
    },
    {
      "inputs": [
        {
          "internalType": "address",
          "name": "owner",
          "type": "address"
        },
        {
          "internalType": "address",
          "name": "operator",
          "type": "address"
        }
      ],
      "name": "isApprovedForAll",
      "outputs": [
        {
          "internalType": "bool",
          "name": "",
          "type": "bool"
        }
      ],
      "stateMutability": "view",
      "type": "function"
    },
    {
      "inputs": [],
      "name": "name",
      "outputs": [
        {
          "internalType": "string",
          "name": "",
          "type": "string"
        }
      ],
      "stateMutability": "view",
      "type": "function"
    },
    {
      "inputs": [
        {
          "internalType": "uint256",
          "name": "tokenId",
          "type": "uint256"
        }
      ],
      "name": "ownerOf",
      "outputs": [
        {
          "internalType": "address",
          "name": "",
          "type": "address"
        }
      ],
      "stateMutability": "view",
      "type": "function"
    },
    {
      "inputs": [
        {
          "internalType": "address",
          "name": "to",
          "type": "address"
        },
        {
          "internalType": "string",
          "name": "uri",
          "type": "string"
        }
      ],
      "name": "safeMint",
      "outputs": [
        {
          "internalType": "uint256",
          "name": "",
          "type": "uint256"
        }
      ],
      "stateMutability": "nonpayable",
      "type": "function"
    },
    {
      "inputs": [
        {
          "internalType": "address",
          "name": "from",
          "type": "address"
        },
        {
          "internalType": "address",
          "name": "to",
          "type": "address"
        },
        {
          "internalType": "uint256",
          "name": "tokenId",
          "type": "uint256"
        }
      ],
      "name": "safeTransferFrom",
      "outputs": [],
      "stateMutability": "nonpayable",
      "type": "function"
    },
    {
      "inputs": [
        {
          "internalType": "address",
          "name": "from",
          "type": "address"
        },
        {
          "internalType": "address",
          "name": "to",
          "type": "address"
        },
        {
          "internalType": "uint256",
          "name": "tokenId",
          "type": "uint256"
        },
        {
          "internalType": "bytes",
          "name": "_data",
          "type": "bytes"
        }
      ],
      "name": "safeTransferFrom",
      "outputs": [],
      "stateMutability": "nonpayable",
      "type": "function"
    },
    {
      "inputs": [
        {
          "internalType": "address",
          "name": "operator",
          "type": "address"
        },
        {
          "internalType": "bool",
          "name": "approved",
          "type": "bool"
        }
      ],
      "name": "setApprovalForAll",
      "outputs": [],
      "stateMutability": "nonpayable",
      "type": "function"
    },
    {
      "inputs": [
        {
          "internalType": "bytes4",
          "name": "interfaceId",
          "type": "bytes4"
        }
      ],
      "name": "supportsInterface",
      "outputs": [
        {
          "internalType": "bool",
          "name": "",
          "type": "bool"
        }
      ],
      "stateMutability": "view",
      "type": "function"
    },
    {
      "inputs": [],
      "name": "symbol",
      "outputs": [
        {
          "internalType": "string",
          "name": "",
          "type": "string"
        }
      ],
      "stateMutability": "view",
      "type": "function"
    },
    {
      "inputs": [
        {
          "internalType": "uint256",
          "name": "tokenId",
          "type": "uint256"
        }
      ],
      "name": "tokenURI",
      "outputs": [
        {
          "internalType": "string",
          "name": "",
          "type": "string"
        }
      ],
      "stateMutability": "view",
      "type": "function"
    },
    {
      "inputs": [
        {
          "internalType": "address",
          "name": "from",
          "type": "address"
        },
        {
          "internalType": "address",
          "name": "to",
          "type": "address"
        },
        {
          "internalType": "uint256",
          "name": "tokenId",
          "type": "uint256"
        }
      ],
      "name": "transferFrom",
      "outputs": [],
      "stateMutability": "nonpayable",
      "type": "function"
    }
  ],
  "bytecode": "0x60806040523480156200001157600080fd5b5060405162003008380380620030088339818101604052810190620000379190620002c2565b818181600090805190602001906200005192919062000075565b5080600190805190602001906200006a92919062000075565b5050505050620003ac565b828054620000839062000376565b90600052602060002090601f016020900481019282620000a75760008555620000f3565b82601f10620000c257805160ff1916838001178555620000f3565b82800160010185558215620000f3579182015b82811115620000f2578251825591602001919060010190620000d5565b5b50905062000102919062000106565b5090565b5b808211156200012157600081600090555060010162000107565b5090565b6000604051905090565b600080fd5b600080fd5b600080fd5b600080fd5b6000601f19601f8301169050919050565b7f4e487b7100000000000000000000000000000000000000000000000000000000600052604160045260246000fd5b6200018e8262000143565b810181811067ffffffffffffffff82111715620001b057620001af62000154565b5b80604052505050565b6000620001c562000125565b9050620001d3828262000183565b919050565b600067ffffffffffffffff821115620001f657620001f562000154565b5b620002018262000143565b9050602081019050919050565b60005b838110156200022e57808201518184015260208101905062000211565b838111156200023e576000848401525b50505050565b60006200025b6200025584620001d8565b620001b9565b9050828152602081018484840111156200027a57620002796200013e565b5b620002878482856200020e565b509392505050565b600082601f830112620002a757620002a662000139565b5b8151620002b984826020860162000244565b91505092915050565b60008060408385031215620002dc57620002db6200012f565b5b600083015167ffffffffffffffff811115620002fd57620002fc62000134565b5b6200030b858286016200028f565b925050602083015167ffffffffffffffff8111156200032f576200032e62000134565b5b6200033d858286016200028f565b9150509250929050565b7f4e487b7100000000000000000000000000000000000000000000000000000000600052602260045260246000fd5b600060028204905060018216806200038f57607f821691505b60208210811415620003a657620003a562000347565b5b50919050565b612c4c80620003bc6000396000f3fe608060405234801561001057600080fd5b50600436106100ea5760003560e01c806370a082311161008c578063b88d4fde11610066578063b88d4fde1461025b578063c87b56dd14610277578063d204c45e146102a7578063e985e9c5146102d7576100ea565b806370a08231146101f157806395d89b4114610221578063a22cb4651461023f576100ea565b8063095ea7b3116100c8578063095ea7b31461016d57806323b872dd1461018957806342842e0e146101a55780636352211e146101c1576100ea565b806301ffc9a7146100ef57806306fdde031461011f578063081812fc1461013d575b600080fd5b610109600480360381019061010491906119ae565b610307565b60405161011691906119f6565b60405180910390f35b6101276103e9565b6040516101349190611aaa565b60405180910390f35b61015760048036038101906101529190611b02565b61047b565b6040516101649190611b70565b60405180910390f35b61018760048036038101906101829190611bb7565b610500565b005b6101a3600480360381019061019e9190611bf7565b610618565b005b6101bf60048036038101906101ba9190611bf7565b610678565b005b6101db60048036038101906101d69190611b02565b610698565b6040516101e89190611b70565b60405180910390f35b61020b60048036038101906102069190611c4a565b61074a565b6040516102189190611c86565b60405180910390f35b610229610802565b6040516102369190611aaa565b60405180910390f35b61025960048036038101906102549190611ccd565b610894565b005b61027560048036038101906102709190611e42565b6108aa565b005b610291600480360381019061028c9190611b02565b61090c565b60405161029e9190611aaa565b60405180910390f35b6102c160048036038101906102bc9190611f66565b61091e565b6040516102ce9190611c86565b60405180910390f35b6102f160048036038101906102ec9190611fc2565b610955565b6040516102fe91906119f6565b60405180910390f35b60007f80ac58cd000000000000000000000000000000000000000000000000000000007bffffffffffffffffffffffffffffffffffffffffffffffffffffffff1916827bffffffffffffffffffffffffffffffffffffffffffffffffffffffff191614806103d257507f5b5e139f000000000000000000000000000000000000000000000000000000007bffffffffffffffffffffffffffffffffffffffffffffffffffffffff1916827bffffffffffffffffffffffffffffffffffffffffffffffffffffffff1916145b806103e257506103e1826109e9565b5b9050919050565b6060600080546103f890612031565b80601f016020809104026020016040519081016040528092919081815260200182805461042490612031565b80156104715780601f1061044657610100808354040283529160200191610471565b820191906000526020600020905b81548152906001019060200180831161045457829003601f168201915b5050505050905090565b600061048682610a53565b6104c5576040517f08c379a00000000000000000000000000000000000000000000000000000000081526004016104bc906120d5565b60405180910390fd5b6004600083815260200190815260200160002060009054906101000a900473ffffffffffffffffffffffffffffffffffffffff169050919050565b600061050b82610698565b90508073ffffffffffffffffffffffffffffffffffffffff168373ffffffffffffffffffffffffffffffffffffffff16141561057c576040517f08c379a000000000000000000000000000000000000000000000000000000000815260040161057390612167565b60405180910390fd5b8073ffffffffffffffffffffffffffffffffffffffff1661059b610abf565b73ffffffffffffffffffffffffffffffffffffffff1614806105ca57506105c9816105c4610abf565b610955565b5b610609576040517f08c379a0000000000000000000000000000000000000000000000000000000008152600401610600906121f9565b60405180910390fd5b6106138383610ac7565b505050565b610629610623610abf565b82610b80565b610668576040517f08c379a000000000000000000000000000000000000000000000000000000000815260040161065f9061228b565b60405180910390fd5b610673838383610c5e565b505050565b610693838383604051806020016040528060008152506108aa565b505050565b6000806002600084815260200190815260200160002060009054906101000a900473ffffffffffffffffffffffffffffffffffffffff169050600073ffffffffffffffffffffffffffffffffffffffff168173ffffffffffffffffffffffffffffffffffffffff161415610741576040517f08c379a00000000000000000000000000000000000000000000000000000000081526004016107389061231d565b60405180910390fd5b80915050919050565b60008073ffffffffffffffffffffffffffffffffffffffff168273ffffffffffffffffffffffffffffffffffffffff1614156107bb576040517f08c379a00000000000000000000000000000000000000000000000000000000081526004016107b2906123af565b60405180910390fd5b600360008373ffffffffffffffffffffffffffffffffffffffff1673ffffffffffffffffffffffffffffffffffffffff168152602001908152602001600020549050919050565b60606001805461081190612031565b80601f016020809104026020016040519081016040528092919081815260200182805461083d90612031565b801561088a5780601f1061085f5761010080835404028352916020019161088a565b820191906000526020600020905b81548152906001019060200180831161086d57829003601f168201915b5050505050905090565b6108a661089f610abf565b8383610ec5565b5050565b6108bb6108b5610abf565b83610b80565b6108fa576040517f08c379a00000000000000000000000000000000000000000000000000000000081526004016108f19061228b565b60405180910390fd5b61090684848484611032565b50505050565b60606109178261108e565b9050919050565b60008061092b60076111e0565b905061093760076111ee565b6109418482611204565b61094b8184611222565b8091505092915050565b6000600560008473ffffffffffffffffffffffffffffffffffffffff1673ffffffffffffffffffffffffffffffffffffffff16815260200190815260200160002060008373ffffffffffffffffffffffffffffffffffffffff1673ffffffffffffffffffffffffffffffffffffffff16815260200190815260200160002060009054906101000a900460ff16905092915050565b60007f01ffc9a7000000000000000000000000000000000000000000000000000000007bffffffffffffffffffffffffffffffffffffffffffffffffffffffff1916827bffffffffffffffffffffffffffffffffffffffffffffffffffffffff1916149050919050565b60008073ffffffffffffffffffffffffffffffffffffffff166002600084815260200190815260200160002060009054906101000a900473ffffffffffffffffffffffffffffffffffffffff1673ffffffffffffffffffffffffffffffffffffffff1614159050919050565b600033905090565b816004600083815260200190815260200160002060006101000a81548173ffffffffffffffffffffffffffffffffffffffff021916908373ffffffffffffffffffffffffffffffffffffffff160217905550808273ffffffffffffffffffffffffffffffffffffffff16610b3a83610698565b73ffffffffffffffffffffffffffffffffffffffff167f8c5be1e5ebec7d5bd14f71427d1e84f3dd0314c0f7b2291e5b200ac8c7c3b92560405160405180910390a45050565b6000610b8b82610a53565b610bca576040517f08c379a0000000000000000000000000000000000000000000000000000000008152600401610bc190612441565b60405180910390fd5b6000610bd583610698565b90508073ffffffffffffffffffffffffffffffffffffffff168473ffffffffffffffffffffffffffffffffffffffff161480610c4457508373ffffffffffffffffffffffffffffffffffffffff16610c2c8461047b565b73ffffffffffffffffffffffffffffffffffffffff16145b80610c555750610c548185610955565b5b91505092915050565b8273ffffffffffffffffffffffffffffffffffffffff16610c7e82610698565b73ffffffffffffffffffffffffffffffffffffffff1614610cd4576040517f08c379a0000000000000000000000000000000000000000000000000000000008152600401610ccb906124d3565b60405180910390fd5b600073ffffffffffffffffffffffffffffffffffffffff168273ffffffffffffffffffffffffffffffffffffffff161415610d44576040517f08c379a0000000000000000000000000000000000000000000000000000000008152600401610d3b90612565565b60405180910390fd5b610d4f838383611296565b610d5a600082610ac7565b6001600360008573ffffffffffffffffffffffffffffffffffffffff1673ffffffffffffffffffffffffffffffffffffffff1681526020019081526020016000206000828254610daa91906125b4565b925050819055506001600360008473ffffffffffffffffffffffffffffffffffffffff1673ffffffffffffffffffffffffffffffffffffffff1681526020019081526020016000206000828254610e0191906125e8565b92505081905550816002600083815260200190815260200160002060006101000a81548173ffffffffffffffffffffffffffffffffffffffff021916908373ffffffffffffffffffffffffffffffffffffffff160217905550808273ffffffffffffffffffffffffffffffffffffffff168473ffffffffffffffffffffffffffffffffffffffff167fddf252ad1be2c89b69c2b068fc378daa952ba7f163c4a11628f55a4df523b3ef60405160405180910390a4610ec083838361129b565b505050565b8173ffffffffffffffffffffffffffffffffffffffff168373ffffffffffffffffffffffffffffffffffffffff161415610f34576040517f08c379a0000000000000000000000000000000000000000000000000000000008152600401610f2b9061268a565b60405180910390fd5b80600560008573ffffffffffffffffffffffffffffffffffffffff1673ffffffffffffffffffffffffffffffffffffffff16815260200190815260200160002060008473ffffffffffffffffffffffffffffffffffffffff1673ffffffffffffffffffffffffffffffffffffffff16815260200190815260200160002060006101000a81548160ff0219169083151502179055508173ffffffffffffffffffffffffffffffffffffffff168373ffffffffffffffffffffffffffffffffffffffff167f17307eab39ab6107e8899845ad3d59bd9653f200f220920489ca2b5937696c318360405161102591906119f6565b60405180910390a3505050565b61103d848484610c5e565b611049848484846112a0565b611088576040517f08c379a000000000000000000000000000000000000000000000000000000000815260040161107f9061271c565b60405180910390fd5b50505050565b606061109982610a53565b6110d8576040517f08c379a00000000000000000000000000000000000000000000000000000000081526004016110cf906127ae565b60405180910390fd5b60006006600084815260200190815260200160002080546110f890612031565b80601f016020809104026020016040519081016040528092919081815260200182805461112490612031565b80156111715780601f1061114657610100808354040283529160200191611171565b820191906000526020600020905b81548152906001019060200180831161115457829003601f168201915b505050505090506000611182611428565b90506000815114156111985781925050506111db565b6000825111156111cd5780826040516020016111b592919061280a565b604051602081830303815290604052925050506111db565b6111d68461143f565b925050505b919050565b600081600001549050919050565b6001816000016000828254019250508190555050565b61121e8282604051806020016040528060008152506114e6565b5050565b61122b82610a53565b61126a576040517f08c379a0000000000000000000000000000000000000000000000000000000008152600401611261906128a0565b60405180910390fd5b8060066000848152602001908152602001600020908051906020019061129192919061189f565b505050565b505050565b505050565b60006112c18473ffffffffffffffffffffffffffffffffffffffff16611541565b1561141b578373ffffffffffffffffffffffffffffffffffffffff1663150b7a026112ea610abf565b8786866040518563ffffffff1660e01b815260040161130c9493929190612915565b6020604051808303816000875af192505050801561134857506040513d601f19601f820116820180604052508101906113459190612976565b60015b6113cb573d8060008114611378576040519150601f19603f3d011682016040523d82523d6000602084013e61137d565b606091505b506000815114156113c3576040517f08c379a00000000000000000000000000000000000000000000000000000000081526004016113ba9061271c565b60405180910390fd5b805181602001fd5b63150b7a0260e01b7bffffffffffffffffffffffffffffffffffffffffffffffffffffffff1916817bffffffffffffffffffffffffffffffffffffffffffffffffffffffff191614915050611420565b600190505b949350505050565b606060405180602001604052806000815250905090565b606061144a82610a53565b611489576040517f08c379a000000000000000000000000000000000000000000000000000000000815260040161148090612a15565b60405180910390fd5b6000611493611428565b905060008151116114b357604051806020016040528060008152506114de565b806114bd84611564565b6040516020016114ce92919061280a565b6040516020818303038152906040525b915050919050565b6114f083836116c5565b6114fd60008484846112a0565b61153c576040517f08c379a00000000000000000000000000000000000000000000000000000000081526004016115339061271c565b60405180910390fd5b505050565b6000808273ffffffffffffffffffffffffffffffffffffffff163b119050919050565b606060008214156115ac576040518060400160405280600181526020017f300000000000000000000000000000000000000000000000000000000000000081525090506116c0565b600082905060005b600082146115de5780806115c790612a35565b915050600a826115d79190612aad565b91506115b4565b60008167ffffffffffffffff8111156115fa576115f9611d17565b5b6040519080825280601f01601f19166020018201604052801561162c5781602001600182028036833780820191505090505b5090505b600085146116b95760018261164591906125b4565b9150600a856116549190612ade565b603061166091906125e8565b60f81b81838151811061167657611675612b0f565b5b60200101907effffffffffffffffffffffffffffffffffffffffffffffffffffffffffffff1916908160001a905350600a856116b29190612aad565b9450611630565b8093505050505b919050565b600073ffffffffffffffffffffffffffffffffffffffff168273ffffffffffffffffffffffffffffffffffffffff161415611735576040517f08c379a000000000000000000000000000000000000000000000000000000000815260040161172c90612b8a565b60405180910390fd5b61173e81610a53565b1561177e576040517f08c379a000000000000000000000000000000000000000000000000000000000815260040161177590612bf6565b60405180910390fd5b61178a60008383611296565b6001600360008473ffffffffffffffffffffffffffffffffffffffff1673ffffffffffffffffffffffffffffffffffffffff16815260200190815260200160002060008282546117da91906125e8565b92505081905550816002600083815260200190815260200160002060006101000a81548173ffffffffffffffffffffffffffffffffffffffff021916908373ffffffffffffffffffffffffffffffffffffffff160217905550808273ffffffffffffffffffffffffffffffffffffffff16600073ffffffffffffffffffffffffffffffffffffffff167fddf252ad1be2c89b69c2b068fc378daa952ba7f163c4a11628f55a4df523b3ef60405160405180910390a461189b6000838361129b565b5050565b8280546118ab90612031565b90600052602060002090601f0160209004810192826118cd5760008555611914565b82601f106118e657805160ff1916838001178555611914565b82800160010185558215611914579182015b828111156119135782518255916020019190600101906118f8565b5b5090506119219190611925565b5090565b5b8082111561193e576000816000905550600101611926565b5090565b6000604051905090565b600080fd5b600080fd5b60007fffffffff0000000000000000000000000000000000000000000000000000000082169050919050565b61198b81611956565b811461199657600080fd5b50565b6000813590506119a881611982565b92915050565b6000602082840312156119c4576119c361194c565b5b60006119d284828501611999565b91505092915050565b60008115159050919050565b6119f0816119db565b82525050565b6000602082019050611a0b60008301846119e7565b92915050565b600081519050919050565b600082825260208201905092915050565b60005b83811015611a4b578082015181840152602081019050611a30565b83811115611a5a576000848401525b50505050565b6000601f19601f8301169050919050565b6000611a7c82611a11565b611a868185611a1c565b9350611a96818560208601611a2d565b611a9f81611a60565b840191505092915050565b60006020820190508181036000830152611ac48184611a71565b905092915050565b6000819050919050565b611adf81611acc565b8114611aea57600080fd5b50565b600081359050611afc81611ad6565b92915050565b600060208284031215611b1857611b1761194c565b5b6000611b2684828501611aed565b91505092915050565b600073ffffffffffffffffffffffffffffffffffffffff82169050919050565b6000611b5a82611b2f565b9050919050565b611b6a81611b4f565b82525050565b6000602082019050611b856000830184611b61565b92915050565b611b9481611b4f565b8114611b9f57600080fd5b50565b600081359050611bb181611b8b565b92915050565b60008060408385031215611bce57611bcd61194c565b5b6000611bdc85828601611ba2565b9250506020611bed85828601611aed565b9150509250929050565b600080600060608486031215611c1057611c0f61194c565b5b6000611c1e86828701611ba2565b9350506020611c2f86828701611ba2565b9250506040611c4086828701611aed565b9150509250925092565b600060208284031215611c6057611c5f61194c565b5b6000611c6e84828501611ba2565b91505092915050565b611c8081611acc565b82525050565b6000602082019050611c9b6000830184611c77565b92915050565b611caa816119db565b8114611cb557600080fd5b50565b600081359050611cc781611ca1565b92915050565b60008060408385031215611ce457611ce361194c565b5b6000611cf285828601611ba2565b9250506020611d0385828601611cb8565b9150509250929050565b600080fd5b600080fd5b7f4e487b7100000000000000000000000000000000000000000000000000000000600052604160045260246000fd5b611d4f82611a60565b810181811067ffffffffffffffff82111715611d6e57611d6d611d17565b5b80604052505050565b6000611d81611942565b9050611d8d8282611d46565b919050565b600067ffffffffffffffff821115611dad57611dac611d17565b5b611db682611a60565b9050602081019050919050565b82818337600083830152505050565b6000611de5611de084611d92565b611d77565b905082815260208101848484011115611e0157611e00611d12565b5b611e0c848285611dc3565b509392505050565b600082601f830112611e2957611e28611d0d565b5b8135611e39848260208601611dd2565b91505092915050565b60008060008060808587031215611e5c57611e5b61194c565b5b6000611e6a87828801611ba2565b9450506020611e7b87828801611ba2565b9350506040611e8c87828801611aed565b925050606085013567ffffffffffffffff811115611ead57611eac611951565b5b611eb987828801611e14565b91505092959194509250565b600067ffffffffffffffff821115611ee057611edf611d17565b5b611ee982611a60565b9050602081019050919050565b6000611f09611f0484611ec5565b611d77565b905082815260208101848484011115611f2557611f24611d12565b5b611f30848285611dc3565b509392505050565b600082601f830112611f4d57611f4c611d0d565b5b8135611f5d848260208601611ef6565b91505092915050565b60008060408385031215611f7d57611f7c61194c565b5b6000611f8b85828601611ba2565b925050602083013567ffffffffffffffff811115611fac57611fab611951565b5b611fb885828601611f38565b9150509250929050565b60008060408385031215611fd957611fd861194c565b5b6000611fe785828601611ba2565b9250506020611ff885828601611ba2565b9150509250929050565b7f4e487b7100000000000000000000000000000000000000000000000000000000600052602260045260246000fd5b6000600282049050600182168061204957607f821691505b6020821081141561205d5761205c612002565b5b50919050565b7f4552433732313a20617070726f76656420717565727920666f72206e6f6e657860008201527f697374656e7420746f6b656e0000000000000000000000000000000000000000602082015250565b60006120bf602c83611a1c565b91506120ca82612063565b604082019050919050565b600060208201905081810360008301526120ee816120b2565b9050919050565b7f4552433732313a20617070726f76616c20746f2063757272656e74206f776e6560008201527f7200000000000000000000000000000000000000000000000000000000000000602082015250565b6000612151602183611a1c565b915061215c826120f5565b604082019050919050565b6000602082019050818103600083015261218081612144565b9050919050565b7f4552433732313a20617070726f76652063616c6c6572206973206e6f74206f7760008201527f6e6572206e6f7220617070726f76656420666f7220616c6c0000000000000000602082015250565b60006121e3603883611a1c565b91506121ee82612187565b604082019050919050565b60006020820190508181036000830152612212816121d6565b9050919050565b7f4552433732313a207472616e736665722063616c6c6572206973206e6f74206f60008201527f776e6572206e6f7220617070726f766564000000000000000000000000000000602082015250565b6000612275603183611a1c565b915061228082612219565b604082019050919050565b600060208201905081810360008301526122a481612268565b9050919050565b7f4552433732313a206f776e657220717565727920666f72206e6f6e657869737460008201527f656e7420746f6b656e0000000000000000000000000000000000000000000000602082015250565b6000612307602983611a1c565b9150612312826122ab565b604082019050919050565b60006020820190508181036000830152612336816122fa565b9050919050565b7f4552433732313a2062616c616e636520717565727920666f7220746865207a6560008201527f726f206164647265737300000000000000000000000000000000000000000000602082015250565b6000612399602a83611a1c565b91506123a48261233d565b604082019050919050565b600060208201905081810360008301526123c88161238c565b9050919050565b7f4552433732313a206f70657261746f7220717565727920666f72206e6f6e657860008201527f697374656e7420746f6b656e0000000000000000000000000000000000000000602082015250565b600061242b602c83611a1c565b9150612436826123cf565b604082019050919050565b6000602082019050818103600083015261245a8161241e565b9050919050565b7f4552433732313a207472616e736665722066726f6d20696e636f72726563742060008201527f6f776e6572000000000000000000000000000000000000000000000000000000602082015250565b60006124bd602583611a1c565b91506124c882612461565b604082019050919050565b600060208201905081810360008301526124ec816124b0565b9050919050565b7f4552433732313a207472616e7366657220746f20746865207a65726f2061646460008201527f7265737300000000000000000000000000000000000000000000000000000000602082015250565b600061254f602483611a1c565b915061255a826124f3565b604082019050919050565b6000602082019050818103600083015261257e81612542565b9050919050565b7f4e487b7100000000000000000000000000000000000000000000000000000000600052601160045260246000fd5b60006125bf82611acc565b91506125ca83611acc565b9250828210156125dd576125dc612585565b5b828203905092915050565b60006125f382611acc565b91506125fe83611acc565b9250827fffffffffffffffffffffffffffffffffffffffffffffffffffffffffffffffff0382111561263357612632612585565b5b828201905092915050565b7f4552433732313a20617070726f766520746f2063616c6c657200000000000000600082015250565b6000612674601983611a1c565b915061267f8261263e565b602082019050919050565b600060208201905081810360008301526126a381612667565b9050919050565b7f4552433732313a207472616e7366657220746f206e6f6e20455243373231526560008201527f63656976657220696d706c656d656e7465720000000000000000000000000000602082015250565b6000612706603283611a1c565b9150612711826126aa565b604082019050919050565b60006020820190508181036000830152612735816126f9565b9050919050565b7f45524337323155524953746f726167653a2055524920717565727920666f722060008201527f6e6f6e6578697374656e7420746f6b656e000000000000000000000000000000602082015250565b6000612798603183611a1c565b91506127a38261273c565b604082019050919050565b600060208201905081810360008301526127c78161278b565b9050919050565b600081905092915050565b60006127e482611a11565b6127ee81856127ce565b93506127fe818560208601611a2d565b80840191505092915050565b600061281682856127d9565b915061282282846127d9565b91508190509392505050565b7f45524337323155524953746f726167653a2055524920736574206f66206e6f6e60008201527f6578697374656e7420746f6b656e000000000000000000000000000000000000602082015250565b600061288a602e83611a1c565b91506128958261282e565b604082019050919050565b600060208201905081810360008301526128b98161287d565b9050919050565b600081519050919050565b600082825260208201905092915050565b60006128e7826128c0565b6128f181856128cb565b9350612901818560208601611a2d565b61290a81611a60565b840191505092915050565b600060808201905061292a6000830187611b61565b6129376020830186611b61565b6129446040830185611c77565b818103606083015261295681846128dc565b905095945050505050565b60008151905061297081611982565b92915050565b60006020828403121561298c5761298b61194c565b5b600061299a84828501612961565b91505092915050565b7f4552433732314d657461646174613a2055524920717565727920666f72206e6f60008201527f6e6578697374656e7420746f6b656e0000000000000000000000000000000000602082015250565b60006129ff602f83611a1c565b9150612a0a826129a3565b604082019050919050565b60006020820190508181036000830152612a2e816129f2565b9050919050565b6000612a4082611acc565b91507fffffffffffffffffffffffffffffffffffffffffffffffffffffffffffffffff821415612a7357612a72612585565b5b600182019050919050565b7f4e487b7100000000000000000000000000000000000000000000000000000000600052601260045260246000fd5b6000612ab882611acc565b9150612ac383611acc565b925082612ad357612ad2612a7e565b5b828204905092915050565b6000612ae982611acc565b9150612af483611acc565b925082612b0457612b03612a7e565b5b828206905092915050565b7f4e487b7100000000000000000000000000000000000000000000000000000000600052603260045260246000fd5b7f4552433732313a206d696e7420746f20746865207a65726f2061646472657373600082015250565b6000612b74602083611a1c565b9150612b7f82612b3e565b602082019050919050565b60006020820190508181036000830152612ba381612b67565b9050919050565b7f4552433732313a20746f6b656e20616c7265616479206d696e74656400000000600082015250565b6000612be0601c83611a1c565b9150612beb82612baa565b602082019050919050565b60006020820190508181036000830152612c0f81612bd3565b905091905056fea2646970667358221220fa9f167b2176dc3b9901e8be4bb62490b8b5ea14919393db7dc29993e054f9d564736f6c634300080c0033",
  "linkReferences": {},
  "deployedLinkReferences": {}
}